:1000000002308A00C42A00000A108A100A118207EE
:1000100028340C3401340634D620CC2A4510412231
:10002000431D000033308400831300080319252882
:100030000630F800F701F70B1B28F80B1A287B3065
:10004000F700F70B2128800B182808000830F8006B
:100050000430F700F70B2A288711A0112008831617
:1000600087000330F700F70B33288312C00D071207
:10007000031C40282016200883168700442883127A
:10008000201220088316870000008312A015200884
:10009000831687008312871D4B28F80B282804300D
:1000A000F700F70B51288711A0112008831687004D
:1000B0000000831220162008831687000330F70003
:1000C000F70B60280330F700F70B64288312A015A4
:1000D0002008831687008312871D6C28F8010330DF
:1000E000F700F70B7128071A78148711A011200860
:1000F00083168700831207122012200883168700B8
:10010000831208003E08003A03198A28013A0319AD
:10011000AD28D2283D0EF700F030F705770825040A
:10012000BF00C000262000003D0EF700F030F705AC
:10013000770804382504BF00C00026200330F700EC
:10014000F70BA0283D0EF700F030F7057708FB39D4
:100150002504BF00C0002620D2283D0EF700F03055
:10016000F705770801382504BF00C00026200000ED
:100170003D0EF700F030F705770801380438250404
:10018000BF00C00026200330F700F70BC5283D0E46
:10019000F700F030F705770801382504BF00C000EC
:1001A0002620D22808002016200883168700043055
:1001B000F700F70BD9288312A015200883168700B3
:1001C0000330F700F70BE2288312071220122008F1
:1001D000831687000430F700F70BEC288312871191
:1001E000A01120088316870083122108C000262052
:1001F0003A0EBC000F30BC053C08BD003B08BE00F9
:1002000082203A080F39BC00BD003B08BE008220A6
:10021000201220088316870000008312A0152008F2
:10022000831687008312871D13290430F700F70B0C
:1002300017291A2900002016200883168700043089
:10024000F700F70B2129831208000130BA00BB0127
:10025000D3200230B30012200130A4000800290886
:10026000A1002B08A2002A08A3000B138B138B1BE1
:1002700036293230B300122020162008831687005A
:100280000430F700F70B42298312A01520088316CB
:1002900087000330F700F70B4B2983120712201257
:1002A0002008831687000430F700F70B55298312C6
:1002B0008711A01120088316870083122108C0002F
:1002C0002620BD01BE0182200F30B3001220013074
:1002D000AC002C08033C031C76290330BD00BE0192
:1002E00082200530B3001220AC0A69290230BD001B
:1002F000BE0182200530B300122020122008831690
:10030000870000008312A01520088316870083123F
:10031000871D88290430F700F70B8C298F290000EE
:1003200020162008831687000430F700F70B962963
:100330008312AC012C08033C031CA9292C080420BF
:10034000AD00BA00BB01D3200530B3001220AC0AC7
:100350009A292521C0308B048A110A12E62AA9089D
:100360000319B5290830A500B629A5018A110A127A
:10037000E92A340822020318C0292208B500C2293C
:100380003408B5003508013A0319D029033A031996
:10039000D229013A0319D529073A0319D829DB29AB
:1003A000B701DD294030B700DD291430B700DD2961
:1003B0005430B700DD29B701DD29330823020318C3
:1003C000E4292308B600E6293308B60001303602D6
:1003D0003707B80038088038B900BA00BB01D3200D
:1003E000080032080C3A0319FC29063A0319FE29C1
:1003F000023A03190B2A102A2521162AA40A2408D6
:1004000022020318052A0130A4000130B300240899
:10041000B400B921162A1030BA00BB01D320162A25
:100420003208BA000130BB00D320162A0800831618
:1004300003178C170C140000000083120C087F397E
:1004400003195B2A0313A90003170D080313AA005D
:1004500003170F080313AB002908B200F1212A0883
:1004600003178D0003132B0803178F0083168C17B7
:100470000C140000000083120C0D0E0D7F390319BF
:100480005B2A0313A90003170D080313AA0003171F
:100490000F080313AB002908B200F1212A08031743
:1004A0008D0003132B0803178F008D0A03198F0A81
:1004B0000313172A031703138A110A12112BB10110
:1004C0000408B0003110831B31142A0EF038AC0040
:1004D000AC07E23EAD00323EAF002A080F39AD074F
:1004E000AD07AF07E93EAE00AE07AE07290E0F39E4
:1004F000AE07AF07AE0DAF0DAF09AF0D29080F392D
:10050000AF07AC0D0730AB000A30AF07AE03031CDA
:10051000852AAE07AD03031C892AAD07AC03031C73
:100520008D2AAC07AB03031C912A2B308400831364
:1005300007303005301384072F30040203193017B9
:100540000008F700031DAC2A301BAC2A301ABE2A63
:10055000B019AC2A2030AF2AB01530123030F7076E
:10056000AA010408A9002A10831B2A147708B200E4
:10057000F1212908840083132A188317840A301F65
:100580009C2A8A110A121D2B840183131F308305B4
:100590000130A4000830A500831603170908C039EC
:1005A000890003131F129F12003003178800831263
:1005B000870188018901FF300313A000A6014E3096
:1005C000A9001030AA000230AB002F290130A90089
:1005D000AF291F179F1783169F1783121F140C3004
:1005E000F8001F08C33978049F001030F700F70B9C
:1005F000F72A00009F149F18FB2A83161E088312F7
:10060000A7001E08A8000130B300B400B92164306F
:10061000B30012200C3003178D0000308F0003133D
:10062000172A0130B3000230B400B9210930840028
:100630002808AA002708A9005F2A2030B200F1216B
:0A0640006430B3001220FA2A6300B0
:04400E00E22FFF3F5F
:00000001FF
;PIC16F887
;CRC=376F  CREATED="29-Nov-23 17:11"
