:1000000004308A00ED2C00000A108A100A118207C1
:1000100028340C3401340634C4272027C824452A48
:1000200020224F10CC26B31A00003F3084008313E7
:100030000008031928280630F800F701F70B1E28DE
:10004000F80B1D287B30F700F70B2428800B1B28AA
:1000500008000830F8000430F700F70B2D2887114E
:10006000A0112008831687000330F700F70B36280D
:100070008312CC0D0712031C432820162008831678
:10008000870047288312201220088316870000006B
:100090008312A0152008831687008312871D4E281F
:1000A000F80B2B280430F700F70B54288711A01108
:1000B000200883168700000083122016200883166C
:1000C00087000330F700F70B63280330F700F70BC6
:1000D00067288312A0152008831687008312871DC6
:1000E0006F28F8010330F700F70B7428071A78140B
:1000F0008711A0112008831687008312071220128F
:10010000200883168700831208004A08003A031962
:100110008D28013A0319B028D528490EF700F03090
:10012000F70577082504CB00CC0029200000490EF4
:10013000F700F030F705770804382504CB00CC0031
:1001400029200330F700F70BA328490EF700F03001
:10015000F7057708FB392504CB00CC002920D528EA
:10016000490EF700F030F705770801382504CB0079
:10017000CC0029200000490EF700F030F705770881
:10018000013804382504CB00CC0029200330F700C7
:10019000F70BC828490EF700F030F705770801384B
:1001A0002504CB00CC002920D528080020162008E3
:1001B000831687000430F700F70BDC288312A015A4
:1001C0002008831687000330F700F70BE528831219
:1001D000071220122008831687000430F700F70B5F
:1001E000EF2883128711A01120088316870083123D
:1001F0002108CC002920460EC8000F30C805480849
:10020000C9004708CA00852046080F39C800C90040
:100210004708CA00852020122008831687000000A6
:100220008312A0152008831687008312871D1629C4
:100230000430F700F70B1A291D29000020162008AA
:10024000831687000430F700F70B24298312080077
:100250000130C600C701D6200230BF001520013092
:10026000A40008003108A1003308A2003208A3004E
:100270000B138B138B1B39293230BF00152020162E
:100280002008831687000430F700F70B45298312F6
:10029000A0152008831687000330F700F70B4E29BE
:1002A0008312071220122008831687000430F700FB
:1002B000F70B582983128711A01120088316870095
:1002C00083122108CC002920C901CA0185200F30E2
:1002D000BF0015200130B4003408033C031C792909
:1002E0000330C900CA0185200530BF001520B40ABB
:1002F0006C290230C900CA0185200530BF001520D5
:10030000201220088316870000008312A015200801
:10031000831687008312871D8B290430F700F70BA3
:100320008F299229000020162008831687000430A8
:10033000F700F70B99298312B4013408033C031C1E
:10034000AC2934080420B500C600C701D62005300A
:10035000BF001520B40A9D292821C0308B048A11C2
:100360000A120F2DB1080319B8290830A500B929C0
:10037000A5018A110A12122D8E30F7003208F800FA
:100380003108F900FA01F808031DD0297908F800AE
:10039000F9010830F702F808031DD029F701D82920
:1003A0000310F81BD729F90DF80DF703D029F8131E
:1003B0008A110A12312D3E0803194B2AC600420841
:1003C00003194B2AC6070318EC297F30C602031C09
:1003D0004B2A03194B2AF0298130C60703184B2AF0
:1003E0004608F700F801F901FA013F08CA00CA17E8
:1003F0004008C9004108C8001830C600C701481CA1
:10040000192A4508FA07031C0B2AF90A031D0B2AAF
:10041000F80A0319C7174408F907031C122AF80A37
:100420000319C7174308C000C0174008F80703188E
:10043000C717C70DF80CF90CFA0CCA0CC90CC80C7C
:100440000310C60BFE290130F70703184B2AF81BCF
:10045000302ACA0DFA0DF90DF80DF70303194B2ACE
:10046000CA1F412AFA0A031D412AF90A031D412A1B
:10047000F80A031D412AF80CF90CFA0CF70A0319C3
:100480004B2A3F08C7004308C706C71F492AF81769
:100490004F2AF8134F2AF701F801F901FA01080071
:1004A00035080319152BC10039080319152BC10292
:1004B000031C5F2A7F30C1070318152B652A813082
:1004C000C102031C152B0319152B4108F700F80175
:1004D000F901FA01C0013608BF00BF173708BE0096
:1004E0003808BD001930C1003C08BD020318882A35
:1004F0000130BE020318882ABF020318882AC002EE
:100500000318882AC00ABF0ABE0A3C08BD07BA2AD7
:100510003B08BE020318A32A0130BF020318A32A16
:10052000C0020318A32AC00ABF0A3B08BE073C0842
:10053000BD07031CBA2ABE0A031DBA2ABF0A031D3F
:10054000BA2AC00ABA2A3A088038BF020318B92A60
:100550000130C0020318B92AC00A3A088038BF0720
:100560003B08BE07031C972ABF0A031D972AC00A2F
:10057000972A7A14C10BBD2AC82A0310BD0DBE0DDF
:10058000BF0DC00D0310FA0DF90DF80DC20D742A40
:10059000421CD02A0310F80CF90CFA0CC20CD32A16
:1005A000F7030319152BC21BFC2A0310BD0DBE0D4A
:1005B000BF0DC00D3C08BD020318E82A0130BE0281
:1005C0000318E82ABF020318E82AC002031C0B2BF9
:1005D0003B08BE020318F32A0130BF020318F32AB6
:1005E000C002031C0B2B3A088038BF020318FC2AF8
:1005F0000130C002031C0B2BFA0A031D0B2BF90A56
:10060000031D0B2BF80A031D0B2BF70A0319152BDF
:10061000F80CF90CFA0C3608C1003A08C106C11FE3
:10062000132BF817192BF813192BF701F801F901FF
:10063000FA018A110A12552D400822020318232BB1
:100640002208C100252B4008C1004108013A0319C6
:10065000332B033A0319352B013A0319382B073A88
:1006600003193B2B3E2BC301402B4030C300402BD2
:100670001430C300402B5430C300402BC301402B27
:100680003F0823020318472B2308C200492B3F08C9
:10069000C200013042024307C40044088038C5004C
:1006A000C600C701D62008003E080C3A03195F2B8C
:1006B000063A0319612B023A03196E2B732B28217A
:1006C000792BA40A240822020318682B0130A40005
:1006D0000130BF002408C0001C23792B1030C60055
:1006E000C701D620792B3E08C6000130C700D620AE
:1006F000792B0800831603178C170C1400000000D8
:1007000083120C087F390319BE2B0313B1000317A2
:100710000D080313B20003170F080313B3003108C9
:10072000BE005423320803178D0003133308031748
:100730008F0083168C170C140000000083120C0D20
:100740000E0D7F390319BE2B0313B10003170D08DB
:100750000313B20003170F080313B3003108BE00E0
:100760005423320803178D000313330803178F0037
:100770008D0A03198F0A03137A2B031703138A11A7
:100780000A12812DF701F801F901FA01C601C7012A
:10079000C801C90145084404430442040319002C5C
:1007A0002030CA000310BE0DBF0DC00DC10DC60D17
:1007B000C70DC80DC90D45084902031DE92B4408A2
:1007C0004802031DE92B43084702031DE92B420899
:1007D0004602031CFA2B4208C6024308031C430FBF
:1007E000C7024408031C440FC8024508031C450FF8
:1007F000C9020314F70DF80DF90DFA0DCA0BD22B2F
:1008000046308400831308000408B6003508B80099
:100810000319232C3408C1003308C0003208BF007C
:100820003108BE00C501C4012030C3008230C200BF
:10083000DB217A08B4007908B3007808B2007708A1
:10084000B100B80B0A2C3408C1003308C0003208CC
:10085000BF003108BE003E08B63CBE00FA013F08AA
:10086000C200BF170310BF0CC00CC10CFA0CF90C6E
:10087000F80CF70CBE0B322CC21F492CF709F809F3
:10088000F909FA09F70A0319F80A0319F90A031909
:10089000FA0A7A08B4007908B3007808B200770839
:1008A000B100B41F602CB603B616B109B209B30982
:1008B000B409B10A0319B20A0319B30A0319B40A35
:1008C0003B30BD009A30BC00CA30BB00BA010A30D0
:1008D000B80035080319B60A3408C1003308C0004F
:1008E0003208BF003108BE003D08C5003C08C40006
:1008F0003B08C3003A08C200C2230008B100840AC2
:100900000008B200840A0008B300840A0008B4009A
:10091000FD308407F708031DA02C350A380203199F
:10092000A02C36080319A22C0F39380203199A2C6F
:100930000318D22CB61BD22C361BA22C2030CE2C66
:100940002030B605B61EB02CB6123508031DB6030E
:100950007708B6002D30BE0054233608F700B601E4
:1009600035083802031DBE2C7708B6002E30BE00B5
:1009700054233608F7002030B60500303030B61E5C
:10098000CE2CB6123508031DB6037708B6002D30FD
:10099000BE0054233608F700B6013030F707770859
:1009A000BE0054233D08C1003C08C0003B08BF0006
:1009B0003A08BE00C501C401C3010A30C200C22307
:1009C0007A08BD007908BC007808BB007708BA0037
:1009D000B80B6C2C8A110A12932D840183131F30DB
:1009E00083050130A4000830A50083160317090809
:1009F000C039890003131F129F12003003178800AB
:100A00008312870188018901FF300313A000A6012A
:100A10004E30B1001030B2000230B3003229013044
:100A2000B100B2291F179F1783169F1783121F1437
:100A30000030F8001F08C33978049F001030F70019
:100A4000F70B202D00009F149F18242D83161E08DD
:100A50008312A7001E08A8002808B2002708B100CA
:100A6000BC297A08C1007908C0007808BF0077085F
:100A7000BE00C501C4012030C3008130C200DB21AB
:100A80007708B1007808B2007908B3007A08B4009A
:100A9000B8007908B7007808B6007708B500BC013F
:100AA000BB01BA018930B900502A7708B100780833
:100AB000B2007908B3007A08B400C1007908C00018
:100AC0007808BF007708BE00C501C4014830C300E4
:100AD0008530C200DB217A08B0007908AF007808C1
:100AE000AE007708AD000130BF00C0001C236430A9
:100AF000BF0015200C3003178D0000308F0003134A
:100B00007A2B0630BF000230C0001C2389308400DD
:100B10003008B4002F08B3002E08B2002D08B10031
:100B20000230B500042C0430B100FA30BF001520AB
:080B3000B10B952D232D63008C
:04400E00E22FFF3F5F
:00000001FF
;PIC16F887
;CRC=E3AD  CREATED="29-Nov-23 13:01"
