:1000000000308A0043280000FF00030E8301A10096
:100010000A08A0008A010408A2007708A300780853
:10002000A4007908A5007A08A600831383128C30F7
:100030008400801E1D288C1A2E2822088400230884
:10004000F7002408F8002508F9002608FA0020081F
:100050008A00210E8300FF0E7F0E09008A110A120A
:1000600031288C1E31281A08A8002808623C031D7C
:100070003B28FF3089002808743C031989018C1241
:100080008A110A121D28840183131F3083058316E9
:10009000031787152A300313990000309A00A63001
:1000A0009800903083129800831603170908C0390E
:1000B000890003131F129F12003003178800831258
:1000C000870188018901FF300313A7008316890186
:0C00D0008C16C03083128B046C28630077
:04400E00E22FFF3F5F
:00000001FF
;PIC16F887
;CRC=77A4  CREATED="29-Nov-23 18:15"
