:1000000000308A008528000036083A068039C00092
:10001000B61F1528B309B409B509B609B30A0319FF
:10002000B40A0319B50A0319B60ABA1F2228B70978
:10003000B809B909BA09B70A0319B80A0319B90AFC
:100040000319BA0AF701F801F901FA01BB01BC0171
:10005000BD01BE013A083904380437040319602889
:100060002030BF000310B30DB40DB50DB60DBB0DA0
:10007000BC0DBD0DBE0D3A083E02031D49283908CE
:100080003D02031D492838083C02031D4928370852
:100090003B02031C5A283708BB023808031C380FE0
:1000A000BC023908031C390FBD023A08031C3A0F81
:1000B000BE020314F70DF80DF90DFA0DBF0B32282F
:1000C000C01F6D28F709F809F909FA09F70A031999
:1000D000F80A0319F90A0319FA0A3B30840083135A
:1000E0000800333084008313000803198428063085
:1000F000F800F701F70B7A28F80B79287B30F70026
:10010000F70B8028800B77280800840183131F30A9
:100110008305831603170908C039890003131F12CA
:100120009F1200300317880083128701880189011C
:10013000C0300313A000F930A100A430A200B030F9
:10014000A3009930A4009230A5008230A600F830B8
:10015000A7008030A8009030A900FF30B2008316BD
:10016000870188018312AD01AC01AB01AA01AD1B6F
:10017000C628AD08031D4A29AC08031D4A29AB084F
:10018000031D4A292A08633C031C4A29B101B00116
:10019000AF01AE01B11BD928B108031D4129B00838
:1001A000031D4129AF08031D41292E08183C031CDB
:1001B00041293210320883168700831207142D0854
:1001C000B6002C08B5002B08B4002A08B300BA0109
:1001D000B901B8010A30B700042020307707840045
:1001E0008313781883170008B300831688018312DD
:1001F000330888000A30B3007120321032088316A9
:10020000870083120710B21032088316870083120A
:1002100087142D08B6002C08B5002B08B4002A0856
:10022000B300BA01B901B8010A30B70004200008D0
:10023000B300840A0008B400840A0008B500840AE8
:100240000008B60020303307840083133418831766
:100250000008B300831688018312330888000A302F
:10026000B3007120B2103208831687008312871002
:100270000130AE070318AF0A0319B00A0319B10A17
:10028000CA280130AA070318AB0A0319AC0A0319DC
:08029000AD0AB728B328630092
:04400E00E22FFF3F5F
:00000001FF
;PIC16F887
;CRC=D1E7  CREATED="29-Dec-23 07:29"
