:1000000003308A001F2B0000FF00030E8301A100B4
:100010000A08A0008A010408A2007708A300780853
:10002000A4007908A5007A08A600831383120B1E8A
:100030001B288B182C28220884002308F70024088A
:10004000F8002508F9002608FA0020088A00210E89
:100050008300FF0E7F0E09008A110A124B280A1036
:100060008A100A11820728340C34013406344930CE
:1000700084008313000803194A280630F800F701AA
:10008000F70B4028F80B3F287B30F700F70B46288A
:10009000800B3D280800AF0A0319B00AC830C90018
:1000A00037208B108A110A121B28D32720264127BC
:1000B0002027C8204E10421800000830F8000430F5
:1000C000F700F70B61288711A8112808831687000D
:1000D0000330F700F70B6A288312C80D0712031CC0
:1000E000772828162808831687007B288312281271
:1000F00028088316870000008312A8152808831695
:1001000087008312871D8228F80B5F280430F700D0
:10011000F70B88288711A81128088316870000008C
:10012000831228162808831687000330F700F70B80
:1001300097280330F700F70B9B288312A81528088F
:10014000831687008312871DA328F8010330F70068
:10015000F70BA828071A78148711A8112808831606
:10016000870083120712281228088316870083123B
:1001700008004608003A0319C128013A0319E42887
:100180000929450EF700F030F70577082D04C70060
:10019000C8005D200000450EF700F030F705770835
:1001A00004382D04C700C8005D200330F700F70BAA
:1001B000D728450EF700F030F7057708FB392D04F6
:1001C000C700C8005D200929450EF700F030F7058B
:1001D000770801382D04C700C8005D200000450ED7
:1001E000F700F030F7057708013804382D04C70010
:1001F000C8005D200330F700F70BFC28450EF70020
:10020000F030F705770801382D04C700C8005D20DD
:100210000929080028162808831687000430F700EB
:10022000F70B10298312A8152808831687000330BE
:10023000F700F70B192983120712281228088316D2
:1002400087000430F700F70B232983128711A811C8
:1002500028088316870083122908C8005D20420EF3
:10026000C4000F30C4054408C5004308C600B920C7
:1002700042080F39C400C5004308C600B92028123F
:1002800028088316870000008312A8152808831603
:1002900087008312871D4A290430F700F70B4E2987
:1002A0005129000028162808831687000430F7001B
:1002B000F70B5829831208000130C200C3010A213C
:1002C000A7018B1BA7178B130230C9003720A71B70
:1002D0008B170130AC0008003108A9003308AA00D0
:1002E0003208AB000B138B138B1B7329A7018B1BDD
:1002F000A7178B133230C9003720A71B8B1728167E
:100300002808831687000430F700F70B852983122D
:10031000A8152808831687000330F700F70B8E29ED
:100320008312071228122808831687000430F7006A
:10033000F70B982983128711A811280883168700C4
:1003400083122908C8005D20C501C601B920A70194
:100350008B1BA7178B130F30C9003720A71B8B17D8
:100360000130B4003408033C031CC5290330C50028
:10037000C601B920A7018B1BA7178B130530C90035
:100380003720A71B8B17B40AB2290230C500C6015B
:10039000B920A7018B1BA7178B130530C900372085
:1003A000A71B8B17281228088316870000008312CA
:1003B000A8152808831687008312871DDD290430BD
:1003C000F700F70BE129E429000028162808831616
:1003D00087000430F700F70BEB298312B4013408CF
:1003E000033C031C042A34082F20B500C200C301BB
:1003F0000A21A7018B1BA7178B130530C9003720D3
:10040000A71B8B17B40AEF295C21C0308B048A111B
:100410000A123B2BB1080319102A0830AD00112A2B
:10042000AD018A110A123E2B3C082A0203181B2A2E
:100430002A08BD001D2A3C08BD003D08013A0319E9
:100440002B2A033A03192D2A013A0319302A073AB5
:100450000319332A362ABF01382A4030BF00382A10
:100460001430BF00382A5430BF00382ABF01382A60
:100470003B082B0203183F2A2B08BE00412A3B08E9
:10048000BE0001303E023F07C00040088038C10076
:10049000C200C3010A2108003A080C3A0319572A7E
:1004A000063A0319592A023A0319662A6B2A5C2173
:1004B000712AAC0A2C082A020318602A0130AC0009
:1004C0000130BB002C08BC001422712A1030C2007D
:1004D000C3010A21712A3A08C2000130C3000A216F
:1004E000712A0800831603178C170C1400000000F3
:1004F00083120C087F390319B62A0313B1000317BE
:100500000D080313B20003170F080313B3003108DB
:10051000BA004C22320803178D0003133308031767
:100520008F0083168C170C140000000083120C0D32
:100530000E0D7F390319B62A0313B10003170D08F6
:100540000313B20003170F080313B3003108BA00F6
:100550004C22320803178D000313330803178F0052
:100560008D0A03198F0A0313722A031703138A11C2
:100570000A12542BB9010408B8003910831B39142E
:10058000320EF038B400B407E23EB500323EB70098
:1005900032080F39B507B507B707E93EB600B60709
:1005A000B607310E0F39B607B707B60DB70DB70945
:1005B000B70D31080F39B707B40D0730B3000A3053
:1005C000B707B603031CE02AB607B503031CE42AE9
:1005D000B507B403031CE82AB407B303031CEC2AD1
:1005E00033308400831307303805381384073730DD
:1005F0000402031938170008F700031D072B381BE6
:10060000072B381A192BB819072B20300A2BB815CD
:1006100038123030F707B2010408B1003210831BE2
:1006200032147708BA004C22310884008313321840
:100630008317840A381FF72A8A110A12602B840153
:1006400083131F3083050130AC000830AD00B001CA
:10065000AF0183161F149F141F159F1107309C00B4
:10066000FF308312A800AE014E30B1001030B2004E
:100670000230B3006C290130B1000A2AFF30831622
:100680008600811383120B1683160113C030831268
:100690008B040130BB00BC001422553003178D00C1
:1006A00000308F000313722A0130BB000230BC00FF
:1006B0001422103084003008B2002F08B100BA2A8A
:1006C000A7018B1BA7178B13C830C9003720A71BA6
:0606D0008B17492B6300AB
:02400E003A3F37
:00000001FF
;PIC16F877A
;CRC=E168  CREATED="10-Nov-23 15:04"
