:1000000005308A004D2D0000FF00030E8301A10082
:100010000A08A0008A010408A2007708A300780853
:10002000A4007908A5007A08A600831383128C30F7
:100030008400001D1D280C192E2822088400230886
:10004000F7002408F8002508F9002608FA0020081F
:100050008A00210E8300FF0E7F0E09008A110A120A
:1000600039280A108A100A11820728340C34013406
:1000700006342E1C4B282715270883168700831269
:1000800097010430970083169B019C0183128F0116
:100090008E012E105C2827152708831687008312EF
:1000A00097010530970083169B019C018312160867
:1000B000B0001508AF002E140C118A110A121D2869
:1000C000C424532A4127C3220000433084008313F1
:1000D0000008031978280630F800F701F70B6E289E
:1000E000F80B6D287B30F700F70B7428800B6B281A
:1000F00008000830F8000430F700F70B7D2887115E
:10010000A7112708831687000330F700F70B86280E
:100110008312D00D0712031C932827162708831675
:10012000870097288312271227088316870000006C
:100130008312A7152708831687008312871D9E2820
:10014000F80B7B280430F700F70BA4288711A711C0
:1001500027088316870000008312271627088316B6
:1001600087000330F700F70BB3280330F700F70BD5
:10017000B7288312A7152708831687008312871DC7
:10018000BF28F8010330F700F70BC428071A7814CA
:100190008711A711270883168700831207122712D9
:1001A000270883168700831208004E08003A0319B7
:1001B000DD28013A0319002925294D0EF700F030FA
:1001C000F70577082C04CF00D000792000004D0EF1
:1001D000F700F030F705770804382C04CF00D00082
:1001E00079200330F700F70BF3284D0EF700F030BD
:1001F000F7057708FB392C04CF00D000792025299A
:100200004D0EF700F030F705770801382C04CF00C9
:10021000D000792000004D0EF700F030F705770888
:10022000013804382C04CF00D00079200330F700C7
:10023000F70B18294D0EF700F030F7057708013855
:100240002C04CF00D0007920252908002716270884
:10025000831687000430F700F70B2C298312A715AB
:100260002708831687000330F700F70B3529831220
:10027000071227122708831687000430F700F70BB0
:100280003F2983128711A71127088316870083123D
:100290002808D00079204A0ECC000F30CC054C083D
:1002A000CD004B08CE00D5204A080F39CC00CD0038
:1002B0004B08CE00D52027122708831687000000A0
:1002C0008312A7152708831687008312871D6629C6
:1002D0000430F700F70B6A296D290000271627085C
:1002E000831687000430F700F70B74298312080087
:1002F0000130CA00CB0126210230C3006520013045
:10030000AB0008003508A8003708A9003608AA0085
:100310000B138B138B1B89293230C30065202716E2
:100320002708831687000430F700F70B95298312FE
:10033000A7152708831687000330F700F70B9E29BF
:100340008312071227122708831687000430F7004C
:10035000F70BA82983128711A71127088316870096
:1003600083122808D0007920CD01CE01D5200F308E
:10037000C30065200130B8003808033C031CC929BC
:100380000330CD00CE01D5200530C3006520B80A6A
:10039000BC290230CD00CE01D5200530C300652038
:1003A000271227088316870000008312A715270845
:1003B000831687008312871DDB290430F700F70BB3
:1003C000DF29E2290000271627088316870004305A
:1003D000F700F70BE9298312B8013808033C031C26
:1003E000FC2938083120B900CA00CB01262105308C
:1003F000C3006520B80AED297821C0308B048A112A
:100400000A12722DB5080319082A0830AC00092A0F
:10041000AC018A110A12752D831605118312051578
:100420001330F700F70B122A152A831605118312D1
:1004300005118A110A12982D8E30F7003608F8003F
:100440003508F900FA01F808031D302A7908F80088
:10045000F9010830F702F808031D302AF701382A9D
:100460000310F81B372AF90DF80DF703302AF8139B
:100470008A110A129F2D42080319AB2ACA004608A6
:100480000319AB2ACA0703184C2A7F30CA02031C7F
:10049000AB2A0319AB2A502A8130CA070318AB2AAA
:1004A0004A08F700F801F901FA014308CE00CE1717
:1004B0004408CD004508CC001830CA00CB014C1CC4
:1004C000792A4908FA07031C6B2AF90A031D6B2ACB
:1004D000F80A0319CB174808F907031C722AF80A0F
:1004E0000319CB174708C400C4174408F8070318BA
:1004F000CB17CB0DF80CF90CFA0CCE0CCD0CCC0CA8
:100500000310CA0B5E2A0130F7070318AB2AF81B49
:10051000902ACE0DFA0DF90DF80DF7030319AB2A49
:10052000CE1FA12AFA0A031DA12AF90A031DA12A36
:10053000F80A031DA12AF80CF90CFA0CF70A0319A2
:10054000AB2A4308CB004708CB06CB1FA92AF817D4
:10055000AF2AF813AF2AF701F801F901FA010800F0
:1005600039080319752BC5003D080319752BC50201
:10057000031CBF2A7F30C5070318752BC52A81309D
:10058000C502031C752B0319752B4508F700F801EC
:10059000F901FA01C4013A08C300C3173B08C200BD
:1005A0003C08C1001930C5004008C1020318E82A00
:1005B0000130C2020318E82AC3020318E82AC40261
:1005C0000318E82AC40AC30AC20A4008C1071A2B42
:1005D0003F08C2020318032B0130C3020318032B88
:1005E000C4020318032BC40AC30A3F08C207400809
:1005F000C107031C1A2BC20A031D1A2BC30A031DB1
:100600001A2BC40A1A2B3E088038C3020318192B70
:100610000130C4020318192BC40A3E088038C307EE
:100620003F08C207031CF72AC30A031DF72AC40A9E
:10063000F72A7A14C50B1D2B282B0310C10DC20DF0
:10064000C30DC40D0310FA0DF90DF80DC60DD42A13
:10065000461C302B0310F80CF90CFA0CC60C332B8B
:10066000F7030319752BC61B5C2B0310C10DC20DBC
:10067000C30DC40D4008C1020318482B0130C2024B
:100680000318482BC3020318482BC402031C6B2B0E
:100690003F08C2020318532B0130C3020318532B27
:1006A000C402031C6B2B3E088038C30203185C2B6A
:1006B0000130C402031C6B2BFA0A031D6B2BF90AD1
:1006C000031D6B2BF80A031D6B2BF70A0319752BFF
:1006D000F80CF90CFA0C3A08C5003E08C506C51F0F
:1006E000732BF817792BF813792BF701F801F9011F
:1006F000FA018A110A12C62D440829020318832B15
:100700002908C500852B4408C5004508013A03198E
:10071000932B033A0319952B013A0319982B073AA7
:1007200003199B2B9E2BC701A02B4030C700A02B89
:100730001430C700A02B5430C700A02BC701A02B3A
:1007400043082A020318A72B2A08C600A92B43082E
:10075000C600013046024707C80048088038C90073
:10076000CA00CB012621080042080C3A0319BF2B0E
:10077000063A0319C12B023A0319CE2BD32B782149
:10078000D92BAB0A2B0829020318C82B0130AB0068
:100790000130C3002B08C4007C23D92B1030CA00C1
:1007A000CB012621D92B4208CA000130CB002621DB
:1007B000D92B0800831603178C170C1400000000B7
:1007C00083120C087F3903191E2C0313B50003177D
:1007D0000D080313B60003170F080313B7003508FD
:1007E000C200B423360803178D000313370803171C
:1007F0008F0083168C170C140000000083120C0D60
:100800000E0D7F3903191E2C0313B50003170D08B5
:100810000313B60003170F080313B7003508C2000F
:10082000B423360803178D000313370803178F000E
:100830008D0A03198F0A0313DA2B031703138A1186
:100840000A12DE2DF701F801F901FA01CA01CB0104
:10085000CC01CD0149084804470446040319602C23
:100860002030CE000310C20DC30DC40DC50DCA0D3E
:10087000CB0DCC0DCD0D49084D02031D492C480868
:100880004C02031D492C47084B02031D492C460806
:100890004A02031C5A2C4608CA024708031C470F89
:1008A000CB024808031C480FCC024908031C490F1F
:1008B000CD020314F70DF80DF90DFA0DCE0B322C05
:1008C0004A308400831308000408BA003908BC00C9
:1008D0000319832C3808C5003708C4003608C30044
:1008E0003508C200C901C8012030C7008230C600E7
:1008F0003B227A08B8007908B7007808B600770874
:10090000B500BC0B6A2C3808C5003708C40036088F
:10091000C3003508C2004208B63CC200FA014308D1
:10092000C600C3170310C30CC40CC50CFA0CF90C99
:10093000F80CF70CC20B922CC61FA92CF709F8096A
:10094000F909FA09F70A0319F80A0319F90A031948
:10095000FA0A7A08B8007908B7007808B60077086C
:10096000B500B81FC02CBA03BA16B509B609B70945
:10097000B809B50A0319B60A0319B70A0319B80A60
:100980003B30C1009A30C000CA30BF00BE010A30FF
:10099000BC0039080319BA0A3808C5003708C40072
:1009A0003608C3003508C2004108C9004008C80025
:1009B0003F08C7003E08C60022240008B500840A8C
:1009C0000008B600840A0008B700840A0008B800CE
:1009D000FD308407F708031D002D390A3C02031976
:1009E000002D3A080319022D0F393C020319FA2C85
:1009F0000318322DBA1B322D3A1B022D20302E2D1A
:100A00002030BA05BA1E102DBA123908031DBA03D8
:100A10007708BA002D30C200B4233A08F700BA01B3
:100A200039083C02031D1E2D7708BA002E30C20083
:100A3000B4233A08F7002030BA0500303030BA1E2F
:100A40002E2DBA123908031DBA037708BA002D30CB
:100A5000C200B4233A08F700BA013030F70777082C
:100A6000C200B4234108C5004008C4003F08C300C9
:100A70003E08C200C901C801C7010A30C6002224CD
:100A80007A08C1007908C0007808BF007708BE0066
:100A9000BC0BCC2C8A110A12F02D840183131F3059
:100AA00083050130AB000830AC002E10B001AF015F
:100AB000831603170908C039890003131F129F12F8
:100AC0000030031788008312870188018901FF30F5
:100AD0000313A700AD014E30B5001030B600023050
:100AE000B70082290130B500022A831603170908CE
:100AF000C039890003131F129F12003003178800AA
:100B000025308312031390002715270883168700CA
:100B1000831297010530970083169B019C010C15E9
:100B2000C03083128B04B401B301B201B1010C2AAD
:100B30002E1C982D3008B6002F08B5001C2A7A0804
:100B4000C5007908C4007808C3007708C200CD301A
:100B5000C900CC30C8004C30C7007E30C6003B22F4
:100B60007708B5007808B6007908B7007A08B800A9
:100B7000BC007908BB007808BA007708B900C0014A
:100B8000BF016830BE008430BD00B02A7A08B400CE
:100B90007908B3007808B2007708B10078210530F1
:100BA000C3000130C4007C230A30C30065206030DC
:100BB00003178D0000308F000313DA2B0630C300BB
:100BC0000230C4007C23893084003408B800330824
:100BD000B7003208B6003108B5000230B900642C05
:100BE0006330C200B4236D30C200B4230230B500BC
:0E0BF000C830C3006520B50BF82D972D6300AB
:04400E00E22FFF3F5F
:00000001FF
;PIC16F887
;CRC=1231  CREATED="01-Dec-23 10:44"
