:1000000002308A00652A00000A108A100A1182074D
:1000100028340C3401340634CE23D52C4527A028AF
:10002000D527431041274800CC22202B49104B24D0
:10003000412747002B3084008313000803192D2823
:100040000630F800F701F70B2328F80B22287B3045
:10005000F700F70B2928800B202808000830F8004B
:100060000430F700F70B32288711A01120088316FF
:1000700087000330F700F70B3B288312B80D0712F7
:10008000031C482820162008831687004C2883125A
:10009000201220088316870000008312A015200874
:1000A000831687008312871D5328F80B30280430ED
:1000B000F700F70B59288711A01120088316870035
:1000C0000000831220162008831687000330F700F3
:1000D000F70B68280330F700F70B6C288312A01584
:1000E0002008831687008312871D7428F8010330C7
:1000F000F700F70B7928071A78148711A011200848
:1001000083168700831207122012200883168700A7
:10011000831208003608003A03199228013A03199D
:10012000B528DA28350EF700F030F70577082504F2
:10013000B700B8002E200000350EF700F030F705AC
:10014000770804382504B700B8002E200330F700E4
:10015000F70BA828350EF700F030F7057708FB39C4
:100160002504B700B8002E20DA28350EF700F0304D
:10017000F705770801382504B700B8002E200000E5
:10018000350EF700F030F7057708013804382504FC
:10019000B700B8002E200330F700F70BCD28350E3E
:1001A000F700F030F705770801382504B700B800EC
:1001B0002E20DA2808002016200883168700043035
:1001C000F700F70BE1288312A0152008831687009B
:1001D0000330F700F70BEA288312071220122008D9
:1001E000831687000430F700F70BF4288312871179
:1001F000A01120088316870083122108B8002E2042
:10020000320EB4000F30B4053408B5003308B60020
:100210008A2032080F39B400B5003308B6008A20AE
:10022000201220088316870000008312A0152008E2
:10023000831687008312871D1B290430F700F70BF4
:100240001F29222900002016200883168700043069
:10025000F700F70B2929831208000130B200B3011F
:10026000DB200230AB001A200130A4000800270870
:10027000A1002908A2002808A3000B138B138B1BD5
:100280003E293230AB001A20201620088316870042
:100290000430F700F70B4A298312A01520088316B3
:1002A00087000330F700F70B53298312071220123F
:1002B0002008831687000430F700F70B5D298312AE
:1002C0008711A01120088316870083122108B80027
:1002D0002E20B501B6018A200F30AB001A20013064
:1002E000AA002A08033C031C7E290330B500B6018E
:1002F0008A200530AB001A20AA0A71290230B50005
:10030000B6018A200530AB001A202012200883167F
:10031000870000008312A01520088316870083122F
:10032000871D90290430F700F70B942997290000C6
:1003300020162008831687000430F700F70B9E294B
:100340008312AA012A08033C031CB1292A080420AD
:10035000AB00B200B301DB200530AB001A20AA0AC3
:10036000A2292D21C0308B048A110A127F2AA708E6
:100370000319BD290830A500BE29A5018A110A125A
:10038000822A2C0822020318C8292208AD00CA2993
:100390002C08AD002D08013A0319D829033A031996
:1003A000DA29013A0319DD29073A0319E029E3297B
:1003B000AF01E5294030AF00E5291430AF00E52951
:1003C0005430AF00E529AF01E5292B0823020318BB
:1003D000EC292308AE00EE292B08AE0001302E02D6
:1003E0002F07B00030088038B100B200B301DB2025
:1003F00008002A080C3A0319042A063A0319062AA7
:10040000023A0319132A182A2D211E2AA40A2408A5
:10041000220203180D2A0130A4000130AB00240889
:10042000AC00C1211E2A1030B200B301DB201E2A0D
:100430002A08B2000130B300DB201E2A0800831610
:1004400003178C170C140000000083120C087F396E
:100450000319632A0313A70003170D080313A80049
:1004600003170F080313A9002708AA00F921280879
:1004700003178D000313290803178F0083168C17A9
:100480000C140000000083120C0D0E0D7F390319AF
:10049000632A0313A70003170D080313A80003170B
:1004A0000F080313A9002708AA00F9212808031739
:1004B0008D000313290803178F008D0A03198F0A73
:1004C00003131F2A031703130800840183131F302B
:1004D00083050130A4000830A50083161F149F1463
:1004E0001F159F1107309C00FF308312A000A6014A
:1004F0004E30A7001030A8000230A9003729013083
:10050000A700B72900308316860001308312AB00A4
:10051000AC00C1210C3003178D0000308F00031395
:100520001F220130AB000230AC00C1211430031790
:100530008D0000308F0003131F228316852A63006D
:02400E00723FFF
:00000001FF
;PIC16F877A
;CRC=C8F2  CREATED="16-Nov-23 14:29"
