:1000000002308A00C42A00000A108A100A118207EE
:1000100028340C3401340634C21820213210C2199D
:1000200020213410C21A00003B30840083130008E2
:10003000031927280630F800F701F70B1D28F80BE5
:100040001C287B30F700F70B2328800B1A280800A8
:100050000830F8000430F700F70B2C288711A011A6
:100060002008831687000330F700F70B352883122A
:10007000C80D0712031C422820162008831687008B
:10008000462883122012200883168700000083125E
:10009000A0152008831687008312871D4D28F80BB2
:1000A0002A280430F700F70B53288711A0112008E5
:1000B000831687000000831220162008831687000D
:1000C0000330F700F70B62280330F700F70B6628C0
:1000D0008312A0152008831687008312871D6E28BF
:1000E000F8010330F700F70B7328071A781487110B
:1000F000A0112008831687008312071220122008FF
:1001000083168700831208004608003A03198C28DA
:10011000013A0319AF28D428450EF700F030F7054F
:1001200077082504C700C80028200000450EF70006
:10013000F030F705770804382504C700C8002820E8
:100140000330F700F70BA228450EF700F030F70553
:100150007708FB392504C700C8002820D428450E9D
:10016000F700F030F705770801382504C700C8000C
:1001700028200000450EF700F030F7057708013819
:1001800004382504C700C80028200330F700F70B07
:10019000C728450EF700F030F70577080138250429
:1001A000C700C8002820D42808002016200883167D
:1001B00087000430F700F70BDB288312A015200816
:1001C000831687000330F700F70BE4288312071229
:1001D00020122008831687000430F700F70BEE2862
:1001E00083128711A011200883168700831221082B
:1001F000C8002820420EC4000F30C4054408C500C2
:100200004308C600842042080F39C400C5004308D3
:10021000C600842020122008831687000000831265
:10022000A0152008831687008312871D1529043026
:10023000F700F70B19291C29000020162008831647
:1002400087000430F700F70B2329831208000130E0
:10025000C200C301D5200230BB0014200130A4002D
:1002600008003108A1003308A2003208A3000B13D4
:100270008B138B1B38293230BB001420201620082A
:10028000831687000430F700F70B44298312A0156A
:100290002008831687000330F700F70B4D298312DF
:1002A000071220122008831687000430F700F70B8E
:1002B000572983128711A011200883168700831203
:1002C0002108C8002820C501C60184200F30BB00CA
:1002D00014200130B4003408033C031C7829033097
:1002E000C500C60184200530BB001420B40A6B2968
:1002F0000230C500C60184200530BB001420201246
:1003000020088316870000008312A015200883169A
:1003100087008312871D8A290430F700F70B8E2986
:100320009129000020162008831687000430F7006A
:10033000F70B98298312B4013408033C031CAB2942
:1003400034080420B500C200C301D5200530BB002D
:100350001420B40A9C292721C0308B048A110A1268
:10036000F02AB1080319B7290830A500B829A5015A
:100370008A110A12F32A3C0822020318C229220811
:10038000BD00C4293C08BD003D08013A0319D2292B
:10039000033A0319D429013A0319D729073A031953
:1003A000DA29DD29BF01DF294030BF00DF29143001
:1003B000BF00DF295430BF00DF29BF01DF293B0820
:1003C00023020318E6292308BE00E8293B08BE00E3
:1003D00001303E023F07C00040088038C100C20023
:1003E000C301D52008003A080C3A0319FE29063A41
:1003F0000319002A023A03190D2A122A2721182A62
:10040000A40A240822020318072A0130A40001309C
:10041000BB002408BC00BB21182A1030C200C30155
:10042000D520182A3A08C2000130C300D520182A66
:100430000800831603178C170C14000000008312A9
:100440000C087F3903195D2A0313B10003170D0847
:100450000313B20003170F080313B3003108BA00E7
:10046000F321320803178D000313330803178F009D
:1004700083168C170C140000000083120C0D0E0D57
:100480007F3903195D2A0313B10003170D08031305
:10049000B20003170F080313B3003108BA00F321A9
:1004A000320803178D000313330803178F008D0ADA
:1004B00003198F0A0313192A031703138A110A1247
:1004C0002F2BB9010408B8003910831B3914320EE0
:1004D000F038B400B407E23EB500323EB70032084F
:1004E0000F39B507B507B707E93EB600B607B60737
:1004F000310E0F39B607B707B60DB70DB709B70DEF
:1005000031080F39B707B40D0730B3000A30B70709
:10051000B603031C872AB607B503031C8B2AB5074D
:10052000B403031C8F2AB407B303031C932A33308C
:1005300084008313073038053813840737300402EA
:10054000031938170008F700031DAE2A381BAE2A1E
:10055000381AC02AB819AE2A2030B12AB815381274
:100560003030F707B2010408B1003210831B321497
:100570007708BA00F32131088400831332188317F7
:10058000840A381F9E2A0800840183131F308305C4
:100590000130A4000830A500A801A701AA01A90103
:1005A000AC01AB01AE01AD01B001AF018316031781
:1005B0000908C039890003131F129F120030031766
:1005C00088008312870188018901FF300313A0008E
:1005D000A6014E30B1001030B2000230B300312914
:1005E0000130B100B12983168901FF3086008312E2
:1005F0008601890183168101861483128618032BD4
:10060000A70A0319A80A83160615831206190B2BCD
:10061000A90A0319AA0A8316861583128619132BB1
:10062000AB0A0319AC0A831606168312061A1B2B93
:10063000AD0A0319AE0A831686168312861A232B77
:10064000AF0A0319B00A27210130BB00BC00BB214F
:100650000C3003178D0000308F000313192A01306E
:10066000BB000230BC00BB21103084002808B2005F
:100670002708B10061220430BB000230BC00BB215E
:10068000103084002A08B2002908B1006122073026
:10069000BB000230BC00BB21103084002C08B2002B
:1006A0002B08B10061220A30BB000230BC00BB2124
:1006B000103084002E08B2002D08B10061220D30E8
:1006C000BB000230BC00BB21103084003008B200F7
:1006D0002F08B10061229630BB0014208316FC2A3B
:0206E0006300B5
:04400E00F22CFF3F52
:00000001FF
;PIC16F887
;CRC=0183  CREATED="30-Nov-23 08:56"
