:1000000000308A00A92800002330840083130008F0
:10001000031917280630F800F701F70B0D28F80B25
:100020000C287B30F700F70B1328800B0A280800F8
:100030000830F80000008711A011200883168700FF
:1000400000008312A30D0712031C2C282016200881
:100050008316870030288312201220088316870019
:1000600000008312A0152008831687008312871DC5
:100070003728F80B1A2800008711A01120088316D2
:1000800087000000831220162008831687000000D6
:1000900000008312A0152008831687008312871D95
:1000A0004F28F8010000071A78148711A0112008C2
:1000B00083168700831207122012200883168700F8
:1000C000831208000830A4007708A5002016200835
:1000D0008316870000008312A0152008831687006E
:1000E0008312871D7128071A0314071E0310F80DC9
:1000F0000000A01120088316870083128711A40B2B
:100100006628201620088316870000008312071235
:1001100025080319902820122008831687008312CF
:100120000000A0152008831687008312871D9628DB
:1001300000008711A0112008831687000000831299
:100140000712201220088316870083128A110A12D0
:100150001F29840183131F30830583160317871516
:1001600008300313990002309A00A63098009030AE
:1001700083129800831603170908C03989000313F6
:100180001F129F1200300317880083128701880115
:100190008901FF300313A0006430A300042020165F
:1001A0002008831687000430F700F70BD528831248
:1001B000A0152008831687000330F700F70BDE2810
:1001C0008312071220122008831687000430F700DC
:1001D000F70BE82883128711A011200883168700E7
:1001E00090308312A3001820A301182020162008A5
:1001F000831687000430F700F70BFC288312A01544
:100200002008831687000330F700F70B05298312B7
:10021000871D082907122012200883168700043042
:10022000F700F70B112983128711A01120088316FC
:10023000870091308312A3001820F7016228A201E1
:100240007808A1002012200883168700000083127E
:10025000A0152008831687008312871D2D290430DE
:10026000F700F70B312934290000201620088316E7
:1002700087000430F700F70B3B29831221080C1E7E
:0E0280003F2999006430A3000420CC286300BD
:04400E00E22FFF3F5F
:00000001FF
;PIC16F887
;CRC=3D39  CREATED="13-Nov-23 22:17"
