:1000000002308A00762A00000A108A100A1182073C
:1000100028340C3401340634333084008313000850
:1000200003191F280630F800F701F70B1528F80B05
:1000300014287B30F700F70B1B28800B12280800D0
:100040000830F8000430F700F70B24288711A011BE
:100050002008831687000330F700F70B2D28831242
:10006000C00D0712031C3A282016200883168700AB
:100070003E28831220122008831687000000831276
:10008000A0152008831687008312871D4528F80BCA
:1000900022280430F700F70B4B288711A011200805
:1000A000831687000000831220162008831687001D
:1000B0000330F700F70B5A280330F700F70B5E28E0
:1000C0008312A0152008831687008312871D6628D7
:1000D000F8010330F700F70B6B28071A7814871123
:1000E000A01120088316870083120712201220080F
:1000F00083168700831208003E08003A03198428FB
:10010000013A0319A728CC283D0EF700F030F70577
:1001100077082504BF00C000202000003D0EF70036
:10012000F030F705770804382504BF00C000202010
:100130000330F700F70B9A283D0EF700F030F70573
:100140007708FB392504BF00C0002020CC283D0ED5
:10015000F700F030F705770801382504BF00C0002C
:10016000202000003D0EF700F030F7057708013839
:1001700004382504BF00C00020200330F700F70B2F
:10018000BF283D0EF700F030F70577080138250449
:10019000BF00C0002020CC280800201620088316AD
:1001A00087000430F700F70BD3288312A01520082E
:1001B000831687000330F700F70BDC288312071241
:1001C00020122008831687000430F700F70BE6287A
:1001D00083128711A011200883168700831221083B
:1001E000C00020203A0EBC000F30BC053C08BD000A
:1001F0003B08BE007C203A080F39BC00BD003B081C
:10020000BE007C2020122008831687000000831285
:10021000A0152008831687008312871D0D2904303E
:10022000F700F70B11291429000020162008831667
:1002300087000430F700F70B1B29831208000130F8
:10024000BA00BB01CD200230B3000C200130A40065
:1002500008002908A1002B08A2002A08A3000B13FC
:100260008B138B1B30293230B3000C202016200852
:10027000831687000430F700F70B3C298312A01582
:100280002008831687000330F700F70B45298312F7
:10029000071220122008831687000430F700F70B9E
:1002A0004F2983128711A01120088316870083121B
:1002B0002108C0002020BD01BE017C200F30B3000A
:1002C0000C200130AC002C08033C031C70290330C7
:1002D000BD00BE017C200530B3000C20AC0A6329B0
:1002E0000230BD00BE017C200530B3000C2020127E
:1002F00020088316870000008312A01520088316AB
:1003000087008312871D82290430F700F70B8629A6
:100310008929000020162008831687000430F70082
:10032000F70B90298312AC012C08033C031CA32972
:100330002C080420AD00BA00BB01CD200530B3006D
:100340000C20AC0A94291F21C0308B048A110A1298
:10035000982AA9080319AF290830A500B029A501DA
:100360008A110A129B2A340822020318BA29220889
:10037000B500BC293408B5003508013A0319CA296B
:10038000033A0319CC29013A0319CF29073A031973
:10039000D229D529B701D7294030B700D729143041
:1003A000B700D7295430B700D729B701D729330868
:1003B00023020318DE292308B600E0293308B6001B
:1003C000013036023707B80038088038B900BA0063
:1003D000BB01CD20080032080C3A0319F629063A71
:1003E0000319F829023A0319052A0A2A1F21102A9B
:1003F000A40A240822020318FF290130A4000130B6
:10040000B3002408B400B321102A1030BA00BB0195
:10041000CD20102A3208BA000130BB00CD20102AAE
:100420000800B1010408B0003110831B31142A0EFA
:10043000F038AC00AC07E23EAD00323EAF002A0817
:100440000F39AD07AD07AF07E93EAE00AE07AE0707
:10045000290E0F39AE07AF07AE0DAF0DAF09AF0DC7
:1004600029080F39AF07AC0D0730AB000A30AF07D2
:10047000AE03031C372AAE07AD03031C3B2AAD07AE
:10048000AC03031C3F2AAC07AB03031C432A2B30ED
:100490008400831307303005301384072F300402A3
:1004A000031930170008F700031D5E2A301B5E2A6F
:1004B000301A702AB0195E2A2030612AB015301225
:1004C0003030F707AA010408A9002A10831B2A1458
:1004D0007708B200EB212908840083132A188317B8
:1004E000840A301F4E2A8A110A12BE2A84018313FD
:1004F0001F308305813083169900A6309800903014
:10050000831298000130A4000830A50083161F1440
:100510009F141F159F1107309C00FF308312A0000D
:10052000A6014E30A9001030AA000230AB002929E4
:100530000130A900A9298C1EC42A8C1E9D2A1A08E4
:10054000A801A7000130B300B400B3216430B300A8
:100550000C204130B200EB214430B200EB2143309B
:10056000B200EB210130B3000230B400B3210930F6
:1005700084002808AA002708A900112A2030B20008
:0C058000EB216430B3000C209B2A6300C8
:02400E00723FFF
:00000001FF
;PIC16F877A
;CRC=6A9A  CREATED="13-Nov-23 12:56"
