:1000000000308A0018280000213084008313000883
:10001000031917280630F800F701F70B0D28F80B25
:100020000C287B30F700F70B1328800B0A280800F8
:10003000840183131F30830583161F149F141F151B
:100040009F118901FF308312890083168501831275
:1000500085008316051283120516831685128312F6
:1000600085168316091083120914831689108312CA
:1000700089148316091183120915C830A1000420C0
:1000800083160512831205128316851283128512B8
:1000900083160910831209108316891083128910A0
:1000A0008316091183120911C830A10004202928E0
:0200B0006300EB
:02400E007A3FF7
:00000001FF
;PIC16F877
;CRC=A901  CREATED="28-Jun-24 13:26"
