:1000000002308A004C2A0000FF00030E8301A10089
:100010000A08A0008A010408A2007708A300780853
:10002000A4007908A5007A08A600831383128C30F7
:100030008400801E1D288C1A2E2822088400230884
:10004000F7002408F8002508F9002608FA0020081F
:100050008A00210E8300FF0E7F0E09008A110A120A
:1000600039280A108A100A11820728340C34013406
:1000700006348C1E39281A08AE002E080C1E3E28A5
:1000800099000130AF008C128A110A121D283430F9
:1000900084008313000803195A280630F800F7017A
:1000A000F70B5028F80B4F287B30F700F70B56283A
:1000B000800B4D2808000830F8000430F700F70BDB
:1000C0005F288711A7112708831687000330F700E0
:1000D000F70B68288312BE0D0712031C752827161C
:1000E000270883168700792883122712270883168A
:1000F000870000008312A715270883168700831244
:10010000871D8028F80B5D280430F700F70B862840
:100110008711A7112708831687000000831227166E
:100120002708831687000330F700F70B9528033064
:10013000F700F70B99288312A71527088316870065
:100140008312871DA128F8010330F700F70BA628BA
:10015000071A78148711A7112708831687008312BE
:1001600007122712270883168700831208003C080D
:10017000003A0319BF28013A0319E22807293B0E68
:10018000F700F030F70577082C04BD00BE005B20B7
:1001900000003B0EF700F030F705770804382C0418
:1001A000BD00BE005B200330F700F70BD5283B0EE7
:1001B000F700F030F7057708FB392C04BD00BE00CE
:1001C0005B2007293B0EF700F030F7057708013870
:1001D0002C04BD00BE005B2000003B0EF700F03099
:1001E000F7057708013804382C04BD00BE005B20F9
:1001F0000330F700F70BFA283B0EF700F030F70555
:10020000770801382C04BD00BE005B2007290800D8
:1002100027162708831687000430F700F70B0E29EE
:100220008312A7152708831687000330F700F70B02
:100230001729831207122712270883168700043014
:10024000F700F70B212983128711A71127088316BE
:10025000870083122808BE005B20380EBA000F30DA
:10026000BA053A08BB003908BC00B72038080F3976
:10027000BA00BB003908BC00B72027122708831634
:10028000870000008312A7152708831687008312B2
:10029000871D48290430F700F70B4C294F2900002F
:1002A00027162708831687000430F700F70B562916
:1002B000831208000130B800B90108210230B400EF
:1002C00047200130AB0008003008A8003208A90020
:1002D0003108AA000B138B138B1B6B293230B4002F
:1002E000472027162708831687000430F700F70BEE
:1002F00077298312A7152708831687000330F70094
:10030000F70B80298312071227122708831687000C
:100310000430F700F70B8A2983128711A7112708E9
:100320008316870083122808BE005B20BB01BC0136
:10033000B7200F30B40047200130B3003308033C2E
:10034000031CAB290330BB00BC01B7200530B4004F
:100350004720B30A9E290230BB00BC01B7200530FC
:10036000B400472027122708831687000000831255
:10037000A7152708831687008312871DBD2904301F
:10038000F700F70BC129C429000027162708831698
:1003900087000430F700F70BCB298312B301330831
:1003A000033C031CDE2933083120B400B800B90136
:1003B00008210530B4004720B30ACF295A21C030A4
:1003C0008B048A110A126E2AB0080319EA29083030
:1003D000AC00EB29AC018A110A12712A30080C3AE0
:1003E0000319F929063A0319FB29023A03193E2A8F
:1003F000432A5A21492AAB0A2B0829020318022A48
:100400000130AB000130B1002B08B20032082902E4
:1004100003180D2A2908B3000F2A3208B300330845
:10042000013A03191D2A033A03191F2A013A031935
:10043000222A073A0319252A282AB5012A2A4030F8
:10044000B5002A2A1430B5002A2A5430B5002A2AC9
:10045000B5012A2A31082A020318312A2A08B400D1
:10046000332A3108B400013034023507B6003608AB
:100470008038B700B800B9010821492A1030B80007
:10048000B9010821492A3008B8000130B900082113
:10049000492A8A110A127C2A840183131F3083059A
:1004A000813083169900A63098009030831298000E
:1004B0000130AB000830AC0083161F149F141F15C9
:1004C0009F1107309C00FF308312A700AD014E3012
:1004D000B0001030B1000230B20064290130B00029
:1004E000E429C0308B0483168C1683122F0B7C2AD0
:0C04F000AF012E08B000EE29762A630050
:02400E00723FFF
:00000001FF
;PIC16F877A
;CRC=9935  CREATED="26-Nov-23 20:14"
